:100000000C942A000C9434000C9434000C943400AA
:100010000C9434000C9434000C9434000C94430081
:100020000C9434000C9434000C9434000C94340080
:100030000C9434000C9434000C9434000C94340070
:100040000C9434000C9434000C9434000C94340060
:100050000C94340011241FBECFE5D8E0DEBFCDBF25
:100060000E9436000C9455000C9400007894B89AC5
:100070008EB58B608EBD89B7806189BF88E09DE3B6
:100080009BBD8ABDFFCF1F920F920FB60F92112416
:100090008F939F9388B391E0892788BB9F918F911D
:0E00A0000F900FBE0F901F901895F894FFCF91
:00000001FF
