:100000000C942A000C9434000C9434000C943400AA
:100010000C9434000C9434000C9434000C94340090
:100020000C9434000C9434000C9434000C94340080
:100030000C9434000C9434000C9434000C94340070
:100040000C9434000C9434000C9434000C94340060
:100050000C94340011241FBECFE5D8E0DEBFCDBF25
:100060000E9463000C9482000C9400008D9A0000A2
:10007000000082B3807C82BB089517BA979A82B33E
:10008000887F82BB02C00E943600C799FCCF8FEFE9
:1000900087BB08951F93182F0E943D0018BB82B3A1
:1000A0008B7782BB0E94360018BA1F9108951F9368
:1000B000182F0E943D0018BB9798929A0E94360014
:1000C00018BA1F9108951F9381B3846A81BB80E39E
:1000D00095E70197F1F781E00E944A0080EA9FE0EE
:1000E0000197F1F788E30E944A0015E8812F8A956D
:1000F000F1F78EE00E944A001A95F1F781E40E9420
:080100005700FFCFF894FFCF78
:00000001FF
