:100000000C942A000C943F000C943F000C943F0089
:100010000C943F000C943F000C943F000C943F0064
:100020000C943F000C943F000C943F000C943F0054
:100030000C943F000C943F000C943F000C943F0044
:100040000C943F000C943F000C943F000C943F0034
:100050000C943F0011241FBECFE5D8E0DEBFCDBF1A
:1000600010E0A0E6B0E0EAE9F8E002C005900D92E9
:10007000AA37B107D9F70E9488030C944B040C945B
:100080000000672B09F09FC0009711F4D8980895DD
:100090008130910511F4D99808958230910511F4B9
:1000A000DA9808958330910511F4DB98089584302F
:1000B000910511F4DC9808958530910511F4DD98CF
:1000C00008958630910511F4DE98089587309105E2
:1000D00011F4DF9808958A30910511F4C0980895BD
:1000E0008B30910511F4C19808958C30910511F46D
:1000F000C29808958D30910511F4C39808958E30FB
:10010000910511F4C49808958F30910511F4C598A4
:1001100008958031910511F4C698089581319105B3
:1001200011F4C79808958431910511F4A8980895A1
:100130008531910511F4A99808958631910511F43E
:10014000AA9808958731910511F4AB9808958831E4
:10015000910511F4AC9808958931910511F4AD9889
:1001600008958A31910511F4AE9808958B31910567
:1001700011F4AF9808958E31910511F49098089577
:100180008F31910511F4919808958032910511F401
:10019000929808958132910511F4939808958232CE
:1001A000910511F4949808958332910511F495986E
:1001B00008958432910511F496980895859709F071
:1001C0009FC097980895009711F4D89A08958130A8
:1001D000910511F4D99A08958230910511F4DA9AB3
:1001E00008958330910511F4DB9A089584309105C8
:1001F00011F4DC9A08958530910511F4DD9A089583
:100200008630910511F4DE9A08958730910511F436
:10021000DF9A08958A30910511F4C09A08958B30C1
:10022000910511F4C19A08958C30910511F4C29A88
:1002300008958D30910511F4C39A08958E3091057B
:1002400011F4C49A08958F30910511F4C59A089558
:100250008031910511F4C69A08958131910511F408
:10026000C79A08958431910511F4A89A08958531AB
:10027000910511F4A99A08958631910511F4AA9A6D
:1002800008958731910511F4AB9A0895883191054D
:1002900011F4AC9A08958931910511F4AD9A08953D
:1002A0008A31910511F4AE9A08958B31910511F4BC
:1002B000AF9A08958E31910511F4909A08958F3177
:1002C000910511F4919A08958032910511F4929A52
:1002D00008958132910511F4939A0895823291051F
:1002E00011F4949A08958332910511F4959A089522
:1002F0008432910511F4969A0895859709F4979A96
:1003000008950F931F93082F182F80FF05C08EE1CB
:1003100090E061E070E004C08EE190E060E070E0A9
:100320000E94410011FF05C08FE190E061E070E0A4
:1003300004C08FE190E060E070E00E94410012FF95
:1003400005C080E290E061E070E004C080E290E0EF
:1003500060E070E00E94410013FF05C081E290E080
:1003600061E070E004C081E290E060E070E00E9433
:10037000410014FF05C082E290E061E070E004C03B
:1003800082E290E060E070E00E94410015FF05C04D
:1003900083E290E061E070E004C083E290E060E01E
:1003A00070E00E94410016FF05C084E290E061E029
:1003B00070E004C084E290E060E070E00E944100E0
:1003C00007FF05C085E290E061E070E004C085E2CF
:1003D00090E060E070E00E9441001F910F9108954D
:1003E0000F931F93182F8AE190E060E070E00E9465
:1003F0004100812F0E9481018BE190E061E070E07B
:100400000E94410000ED17E0C8010197F1F78BE170
:1004100090E060E070E00E944100C8010197F1F7B0
:100420001F910F91089581E00E94F0010895815875
:10043000E4E7F0E0E60FF11D9081890F0E94F001E2
:1004400008958AE190E060E070E00E9441008BE155
:1004500090E060E070E00E94410080E49CE9019738
:10046000F1F780E30E94F00180E197E20197F1F754
:1004700080E30E94F00180ED97E00197F1F780E3BF
:100480000E94F00180E29EE40197F1F788E30E9468
:10049000F0018CE00E94F00181E00E94F00186E012
:1004A0000E94F00108950F931F93182F8AE190E0A6
:1004B00061E070E00E944100812F0E9481018BE188
:1004C00090E061E070E00E94410000ED17E0C8019B
:1004D0000197F1F78BE190E060E070E00E9441004D
:1004E000C8010197F1F71F910F910895CF93DF9302
:1004F000EC0102C00E94530289918823D9F7DF9151
:10050000CF9108958CE10E94F001089588E10E9446
:10051000F0010895CF93DF93C82F80FF05C082E2DA
:1005200090E061E070E004C082E290E060E070E0A2
:100530000E944100C1FF05C083E290E061E070E0ED
:1005400004C083E290E060E070E00E944100C2FFDE
:1005500005C084E290E061E070E004C084E290E0D5
:1005600060E070E00E944100C3FF05C085E290E0BA
:1005700061E070E004C085E290E060E070E00E941D
:100580004100DF91CF9108950F931F93182F8AE1B7
:1005900090E060E070E00E944100812F0E948A029A
:1005A0008BE190E061E070E00E94410000ED17E017
:1005B000C8010197F1F78BE190E060E070E00E94E4
:1005C0004100C8010197F1F71F910F91089580E054
:1005D0000E94C40281E00E94C40208951F938130EA
:1005E00019F4162F105804C0823059F4162F1054E5
:1005F000812F82958F700E94C402812F8F700E947C
:10060000C4021F91089580E00E948A0280E49CE960
:100610000197F1F783E00E94C40280E197E201971D
:10062000F1F783E00E94C40280EF95E50197F1F7AE
:1006300083E00E94C40282E00E94C40282E00E9421
:10064000C40288E00E94C40280E00E94C4028CE0E0
:100650000E94C40280E00E94C40286E00E94C4029C
:100660000895FF920F931F93F82E8AE190E061E0C6
:1006700070E00E9441008F2D82958F700E948A0247
:100680008BE190E061E070E00E94410000ED17E036
:10069000C8010197F1F78BE190E060E070E00E9403
:1006A0004100C8010197F1F78F2D8F700E948A02D7
:1006B0008BE190E061E070E00E944100C801019789
:1006C000F1F78BE190E060E070E00E944100C8012A
:1006D0000197F1F71F910F91FF900895CF93DF934A
:1006E000EC0102C00E94310389918823D9F7DF9180
:1006F000CF91089581E00E94C4028CE00E94C40260
:10070000089581E00E94C40288E00E94C402089516
:100710008F929F92AF92BF92CF92DF92EF92FF9211
:100720000F931F93DF93CF9300D000D0CDB7DEB7E8
:100730008FEF81BB84BB0E94210221E0E22EF12CCD
:100740006E010894C11CD11C98EC892E912C5AC0C2
:10075000C801B6014AE050E00E9406048CE063E064
:100760000E94170280E690E00E947602C6010E9475
:100770007602C701B6014AE050E00E9406048CE010
:1007800064E00E94170285E690E00E947602C601AE
:100790000E947602B02E802F6A2D0E9417028AE6F0
:1007A00090E00E94760284EF91E0F4013197F1F736
:1007B0000197D9F78B2D6A2D0E9417028CE690E0E5
:1007C0000E9476028CE063E00E9417028EE690E0C1
:1007D0000E9476028CE064E00E9417028EE690E0B0
:1007E0000E9476020F5F1F4F0531110509F0B0CF4F
:1007F0000894E11CF11C85E0E816F1041CF081E08E
:10080000E82EF12C01E010E0AE2CA2CFFB019F01FD
:10081000E8944230C4F04532B4F44A3029F497FBEE
:100820001EF4909581959F4F642F77270E9437047F
:10083000805D8A330CF0895D8193CB010097A1F72D
:1008400016F45DE251931082C9010C942704DC0177
:10085000FC01672F71917723E1F7329704C07C91F7
:100860006D9370836291AE17BF07C8F30895AA1BFA
:10087000BB1B51E107C0AA1FBB1FA617B70710F08B
:10088000A61BB70B881F991F5A95A9F780959095BD
:0A089000BC01CD010895F894FFCFDC
:10089A0058203D200059203D2000780020002020CB
:0A08AA00202020200000401454001C
:00000001FF
