:100000000C942A000C9434000C9434000C943400AA
:100010000C9434000C9434000C9434000C94340090
:100020000C9434000C9434000C9434000C94340080
:100030000C9434000C9434000C9434000C94340070
:100040000C9434000C9434000C9434000C94340060
:100050000C94340011241FBECFE5D8E0DEBFCDBF25
:100060000E9436000C9465000C940000B89A88B386
:1000700091E0892788BBBA9AB998C19A40E050E0CC
:1000800080E090E020E030E071E064E004C040E017
:1000900050E020E030E0B19912C00196893C910512
:1000A000D4F34115510541F488B3872788BB88B341
:1000B000862788BB41E050E080E090E0ECCF2F5FE6
:0E00C0003F4F293C31051CF7E6CFF894FFCFE7
:00000001FF
