:100000000C942A000C943C000C943C000C943C0092
:100010000C943C000C943C000C943C000C943C0070
:100020000C943C000C943C000C943C000C943C0060
:100030000C943C000C943C000C943C000C943C0050
:100040000C943C000C943C000C943C000C943C0040
:100050000C943C0011241FBECFE5D8E0DEBFCDBF1D
:1000600010E0A0E6B0E001C01D92AA36B107E1F7AA
:100070000E948B000C94AE000C9400000F931F9311
:10008000DF93CF930F92CDB7DEB78C01698389815F
:1000900090E002C0959587954A95E2F7F801EE0F3A
:1000A000FF1F80FD1AC0DF01AC59BF4F8D919C919D
:1000B0001197019611969C938E93E05AFF4F1182EF
:1000C00010822817390704F5F801E859FF4F80819D
:1000D0008823C1F481E0808318C0DF01A05ABF4F9C
:1000E0008D919C911197019611969C938E93EC594A
:1000F000FF4F118210822817390734F408591F4F17
:10010000F80110821D921C9280E00F90CF91DF9138
:100110001F910F9108950F931F938CE087BB83E08D
:1001200088BB04E018E066B380E090E040E024E69D
:1001300030E00E943E00882319F088B3802788BBF6
:1001400066B381E090E041E024E630E00E943E00AA
:10015000882349F388B3812788BBE5CFF894FFCF84
:00000001FF
