:100000000C942A000C943C000C943C000C943C0092
:100010000C943C000C943C000C943C000C943C0070
:100020000C943C000C943C000C943C000C943C0060
:100030000C943C000C943C000C943C000C943C0050
:100040000C943C000C943C000C943C000C943C0040
:100050000C943C0011241FBECFE5D8E0DEBFCDBF1D
:1000600010E0A0E6B0E001C01D92A037B107E1F7B3
:100070000E94B4000C9408010C940000DC019C0167
:10008000220F331FF901EC59FF4F808191810196B6
:1000900091838083855F91400CF465C0F901E45938
:1000A000FF4F80819181892B09F057C021E030E01A
:1000B00031832083109759F488B30090600002C008
:1000C000220F331F0A94E2F7822B88BB0EC0A130A7
:1000D000B10559F422B3CD010090620002C0880F2F
:1000E000991F0A94E2F7282B22BBFD01EE0FFF1F98
:1000F000E05AFF4F80819181019691838083079719
:1001000064F120E030E07FEF40E25EE460E81097C9
:1001100011F478BB04C0A130B10509F472BBCA0167
:100120000197F1F7109711F468BB04C0A130B10535
:1001300009F462BBCA010197F1F72F5F3F4F2A30E4
:10014000310529F71092610010926000109263004F
:100150001092620080E888BB82BBAA0FBB1FAC591B
:10016000BF4F1D921C9208958FE787BB81BB80E82B
:1001700088BB82BBB79905C080E090E00E943E003A
:1001800014C0809168009091690001969093690075
:1001900080936800855F914044F010926D0010924A
:1001A0006C001092690010926800879905C081E088
:1001B00090E00E943E00DECF80916A0090916B003B
:1001C000019690936B0080936A00855F914094F252
:1001D00010926F0010926E0010926B0010926A00E5
:1001E000C9CFFC01EE0FFF1FDF01A859BF4F8D9152
:1001F0009C911197019611969C938E93855F9140E7
:1002000034F0E459FF4F118210821D921C92089520
:04021000F894FFCF90
:00000001FF
