:100000000C942A000C9434000C9434000C943400AA
:100010000C9434000C9434000C9434000C94340090
:100020000C9434000C9434000C9434000C94340080
:100030000C9434000C9434000C9434000C94340070
:100040000C9434000C9434000C9434000C94340060
:100050000C94340011241FBECFE5D8E0DEBFCDBF25
:100060000E9436000C9468000C9400008FE787BB58
:1000700018BA81BB12BA8EB583608EBDE1E0F0E0A4
:1000800061E070E040E050E020E030E08CB59DB5EC
:10009000895B9840D8F31DBC1CBCCF01022E02C066
:1000A000880F991F0A94E2F788BB2F5F3F4F2730D4
:1000B000310561F7CB01042E02C0880F991F0A9405
:1000C000E2F782BB4F5F5F4F47305105D9F2DCCF7B
:0400D000F894FFCFD2
:00000001FF
